:020000040800F2
:100000000000032095050008BD1E0008BF1E000863
:10001000C11E0008C31E0008C51E00080000000025
:10002000000000000000000000000000E172000875
:10003000C71E00080000000071730008976B0008DD
:10004000E5050008E5050008E5050008E5050008E8
:10005000E5050008E5050008E5050008E5050008D8
:10006000E5050008E5050008E5050008E5050008C8
:10007000E5050008E5050008E5050008E5050008B8
:10008000E5050008E5050008E5050008E5050008A8
:10009000E5050008E5050008E5050008E505000898
:1000A000E5050008E5050008E5050008E505000888
:1000B000E5050008E5050008E5050008E505000878
:1000C000E5050008E5050008E5050008E505000868
:1000D000E5050008E5050008E5050008E505000858
:1000E000E5050008E5050008E5050008E505000848
:1000F000E5050008E5050008E5050008E505000838
:10010000E5050008E5050008E5050008E505000827
:10011000E5050008E5050008C91E0008E50500081A
:10012000E5050008E5050008E5050008E505000807
:10013000E5050008E5050008E5050008E5050008F7
:10014000E5050008E5050008E5050008E5050008E7
:10015000E5050008E5050008E5050008E5050008D7
:10016000E5050008E5050008E5050008E5050008C7
:10017000E5050008E5050008E505000800000000A9
:10018000E5050008E5050008E5050008E5050008A7
:10019000E5050008E5050008E5050008E505000897
:0C01A000D51E0008E5050008E11E00085F
:1001B00010B5054C237833B9044B13B10448AFF3A1
:1001C00000800123237010BD740100200000000096
:1001D0006CE3010808B5034B1BB103490348AFF3B7
:1001E000008008BD00000000780100206CE30108D9
:1001F00001F0FF01102A2BDB10F0070F08D010F8D8
:10020000013B013A8B422DD010F0070F42B3F6D1DB
:10021000F0B441EA012141EA014122F007047FF0F4
:1002200000070023F0E80256083C85EA010586EA4B
:10023000010685FA47F5A3FA87F586FA47F6A5FA87
:1002400087F68EB9EED1F0BC01F0FF0102F0070293
:1002500032B110F8013B013A83EA010313B1F8D13E
:100260000020704701387047002D06BF354603381F
:10027000073815F0010F07D1013015F4807F02BF58
:10028000013015F4C03F0130F0BC0138704700BFA9
:1002900053B94AB9002908BF00281CBF4FF0FF31ED
:1002A0004FF0FF3000F074B9ADF1080C6DE904CEE9
:1002B00000F006F8DDF804E0DDE9022304B0704741
:1002C0002DE9F047089D04468E46002B4DD18A4209
:1002D000944669D9B2FA82F252B101FA02F3C2F13C
:1002E000200120FA01F10CFA02FC41EA030E9440CD
:1002F0004FEA1C48210CBEFBF8F61FFA8CF708FBEE
:1003000016E341EA034306FB07F199420AD91CEBC5
:10031000030306F1FF3080F01F81994240F21C81F7
:10032000023E63445B1AA4B2B3FBF8F008FB10333F
:1003300044EA034400FB07F7A7420AD91CEB040474
:1003400000F1FF3380F00A81A74240F20781644444
:10035000023840EA0640E41B00261DB1D4400023C9
:10036000C5E900433146BDE8F0878B4209D9002D2D
:1003700000F0EF800026C5E9000130463146BDE8B7
:10038000F087B3FA83F6002E4AD18B4202D3824221
:1003900000F2F980841A61EB030301209E46002DD0
:1003A000E0D0C5E9004EDDE702B9FFDEB2FA82F225
:1003B000002A40F09280A1EB0C014FEA1C471FFA83
:1003C0008CFE0126200CB1FBF7F307FB131140EA6A
:1003D00001410EFB03F0884208D91CEB010103F137
:1003E000FF3802D2884200F2CB804346091AA4B2F9
:1003F000B1FBF7F007FB101144EA01440EFB00FECD
:10040000A64508D91CEB040400F1FF3102D2A64531
:1004100000F2BB800846A4EB0E0440EA03409CE7D0
:10042000C6F12007B34022FA07FC4CEA030C20FA7D
:1004300007F401FA06F31C43F9404FEA1C4900FA9D
:1004400006F3B1FBF9F8200C1FFA8CFE09FB18111A
:1004500040EA014108FB0EF0884202FA06F20BD98D
:100460001CEB010108F1FF3A80F08880884240F2DD
:100470008580A8F102086144091AA4B2B1FBF9F021
:1004800009FB101144EA014100FB0EFE8E4508D91C
:100490001CEB010100F1FF346CD28E456AD90238A1
:1004A000614440EA0840A0FB0294A1EB0E01A14286
:1004B000C846A64656D353D05DB1B3EB080261EBF4
:1004C0000E0101FA07F722FA06F3F1401F43C5E9CE
:1004D000007100263146BDE8F087C2F12003D84004
:1004E0000CFA02FC21FA03F3914001434FEA1C4746
:1004F0001FFA8CFEB3FBF7F007FB10360B0C43EA38
:10050000064300FB0EF69E4204FA02F408D91CEBE7
:10051000030300F1FF382FD29E422DD902386344E5
:100520009B1B89B2B3FBF7F607FB163341EA034185
:1005300006FB0EF38B4208D91CEB010106F1FF38D4
:1005400016D28B4214D9023E6144C91A46EA0046CB
:1005500038E72E46284605E70646E3E61846F8E65D
:100560004B45A9D2B9EB020864EB0C0E0138A3E7A6
:100570004646EAE7204694E74046D1E7D0467BE787
:10058000023B614432E7304609E76444023842E7FF
:10059000704700BFDFF834D0002103E00C4B5B58FC
:1005A000435004310B480C4B42189A42F6D30B4A85
:1005B00002E0002342F8043B094B9A42F9D304F0CD
:1005C000C3F81CF06DFE00F019FF70470000032017
:1005D000D854050800000020740100207401002098
:1005E0003C3D0120FEE700F0B5BC00F023BD7047A4
:1005F00010B5042104461CF0DBFD204610BD0000B0
:1006000038B50C4B0C4C18800C4B82201980636859
:10061000984740F6110398420AD1094D23682C608F
:10062000822098472B688220DB689847002038BDDD
:100630000120FCE7900100205400002092010020DE
:10064000940100204FF4A071F020FFF7D9BF000003
:10065000F7B5344D2B6804461B698220984780B259
:10066000208000284CD02B680DF106025B6901A99F
:1006700082209847BDF8063040F67462934241D913
:10068000ADF80620BDF80620C2F56762043292B2CA
:100690000A2A3DD90B23B2FBF3F2234B1B889A4263
:1006A00001D9013B9AB2BDF8043040F6B8318B4213
:1006B00030D8C3F571630E339BB20F21B3FBF1F356
:1006C0001A4909888B4201D94B1E9BB2184E194D0D
:1006D00030682F68834281B28CBF591AC91AB8B2E8
:1006E000BA428CBF101A801A89B280B2014405291F
:1006F000C8BF33603368C8BF2A6063802B68A3809B
:1007000003B0F0BDB32B9CBFB423ADF80630B9E7FE
:100710000022C8E7C3F56D6308339BB20E2BCCD81B
:100720000023D3E7940100209201002090010020D3
:10073000980100209C01002037B568460D461446FC
:10074000FFF786FFBDF8000030B1BDF802302B6026
:10075000BDF804302360012003B030BD032821D848
:10076000DFE800F0020B12190F4B1A68B2FA82F29E
:10077000520904210D4804F07FBA0B4B5A68B2FAB3
:1007800082F252090821F5E7074B9A68B2FA82F221
:1007900052091021EEE7044BDA68B2FA82F25209EC
:1007A0002021E7E7704700BFA001002000100240B1
:1007B000032821D8DFE800F0020B12190F4B1A684A
:1007C000003A18BF012204210D4804F055BA0B4B22
:1007D0005A68003A18BF01220821F5E7074B9A68CA
:1007E000003A18BF01221021EEE7044BDA68003A04
:1007F00018BF01222021E7E7704700BFA0010020B9
:100800000010024003280DD8DFE800F00206080AB5
:100810000421054804F035BA0821FAE71021F8E769
:100820002021F6E7704700BF0010024008B50328FA
:1008300011D8DFE800F0020A0C0E0421074804F08A
:1008400015FA431E5842584108BD0821F6E7102109
:10085000F4E72021F2E70020F3E700BF0010024098
:1008600070B5084D00240126E0B2FFF7DFFF18B194
:100870002B68012B18BF2E600134052C05F10405EF
:10088000F2D170BDA0010020012380F8781080F81B
:100890007930704700207047034B4164003918BF1E
:1008A00001211970704700BF4732012000207047B6
:1008B000836B0BB10846184770474FF6FF707047BF
:1008C000406803689B69184770477047704700008D
:1008D00070B5044600F04EFC2368D3F88850044BF2
:1008E000D4E90F122046AC46BDE87040604700BF17
:1008F000000000D008B503680446D3F8803098475C
:10090000236820469B6F984700F0ECF82368204648
:100910001B6F9847292001F003F800F0E3F82368E3
:1009200020461B6F9847F8E710B5044609F076FBA0
:1009300023682046D3F8AC30BDE81040184700F0DB
:100940000BBC00F00FBC00F03BBC00F0E1BB00F0C2
:100950003BBC00F043BC00F0E5BB08F0CBBD10B5DC
:100960007C2104461CF024FC204610BD90F87A300F
:100970001BB1406803681B681847184670470000A1
:1009800010B590F8341090F878400C4B8C421A78DF
:1009900009D03AB90A4A0B491488088810800C809B
:1009A00001221A7010BD002AFCD0054A054914889E
:1009B000088810800C800022F3E700BF403201203D
:1009C0003C3201203E32012070B50D46194635B942
:1009D000094B0A4A0A4840F2D2211CF017FCC0E930
:1009E0000F52084B003A18BF01221A700368BDE885
:1009F0007040D3F88C301847DCE3010814E4010898
:100A000062E401084632012008B5094B1B888B427D
:100A100003D8084B1B88934205D9074B074A08485F
:100A20009E211CF0F3FB074B1980074B1A8008BD71
:100A30003C3201203E320120A7E401080AE501080A
:100A400062E401084232012044320120012108B54C
:100A50000022084606F045F90A4B186028B90A4BEF
:100A60000A4A28210A481CF0D1FB00220421012057
:100A700006F0DDF9074B186018B9074B034A2C2123
:100A8000F0E708BDB401002028E6010871E601087E
:100A9000A0E60108B0010020EBE60108024B4FF090
:100AA000FF31186806F067B9B4010020014B1868DF
:100AB00006F08CB9B4010020024B0021186806F042
:100AC0005AB900BFB4010020FFF7F0BF0348044942
:100AD000006800231A4606F0E5B900BFB001002007
:100AE0000400002013B5084C00231A4601A9206811
:100AF00006F008FA20684FF0FF33002201A906F043
:100B000001FA02B010BD00BFB001002003685B6CA9
:100B100018470120704703689B6A184782B000237A
:100B200001930D4B1A6B42F400021A631A6B02F424
:100B300000020192019A1A6942F400021A611A69CC
:100B400022F400021A61054B054A1A61054B4FF069
:100B500080629A6002B0704700380240F41C0020A6
:100B6000A90B000800E100E040F2EF307047000000
:100B7000054B0360054B4FF08062C3F88820BFF33C
:100B80004F8FBFF36F8F704788E8010800E100E0E6
:100B900010B504464FF45A61FFF7EAFF20461CF0F7
:100BA00007FB204610BD0000024B1B685868036815
:100BB0005B6918474832012070B5044625460A4B48
:100BC0000C30002660602672667245F8203B602279
:100BD000294609F061FB04F55A63EE602435AB4207
:100BE000FBD1204670BD00BF88E8010808B50B297D
:100BF0000BD8DFE801F01206100A0A0A0A080808F2
:100C00000808012008BD0520FCE7054B054A0648F9
:100C100066211CF0FBFA0020F4E70220F2E700BF97
:100C20002DE7010848E7010892E7010808B50A29FD
:100C300009D8DFE801F010060E08080808060606C5
:100C40000600012008BD054B054A064887211CF017
:100C5000DDFA0020F6E70220F4E700BF2DE70108E7
:100C6000DBE7010892E701082DE9F8434F7F0C46C6
:100C700039468146FFF7BAFF94F81E800546414683
:100C80004846FFF7B3FF414606464846FFF7CEFF0A
:100C9000A18A628B424B521A1A649A61228B521AB1
:100CA0001A61E28A586342EA01425A642069626822
:100CB000D863DA60216894F81CC080294FEA0C627E
:100CC00026D010D8202945EA020461D040295FD0FF
:100CD00004295DD0324B2A4342F400324745DA61A1
:100CE0005AD0304A40E0B1F5807F07D0B1F5007F9F
:100CF000F0D142F4003242F0090203E042F4003243
:100D000042F00A02DA61E2681A625E6258612AE021
:100D1000A4682A4342F40032211DD962DA612278A4
:100D20005E62586142B1012A21D01F4B1F4A204800
:100D300040F211111CF06AFADA69618822F47F42EC
:100D4000013922F0100242EA0122DA610120144B3B
:100D5000DA6942F02002DA61DA699206FCD41022E4
:100D60009A600028BDD0134A1A60BDE8F8836288F3
:100D7000D969541E21F47F4222F0100242EA042273
:100D8000BCF1FF0042F0100218BF0120DA61DEE77B
:100D900044F40034DC61B8E740F20122E4E700BF2C
:100DA00000B002400102010026E8010840E8010805
:100DB00092E701080102020070B50C46897FFFF737
:100DC00035FFA68AE18A628B154B2569586341EA93
:100DD0000641921B5964DD631A642668E168082E97
:100DE0000DD19A611A615862207F0E4A42EA006270
:100DF000DA610D4A19625D61DD601A6070BD002222
:100E0000D8611A6148090A0A02F4784200F4FC60C9
:100E10000243C1F3C4010A439A63044AEDE700BFE9
:100E200000B00240090001000102020001020300BB
:100E3000012070474020704700EB81100830704758
:100E400000EB8110083070470120704740F6882081
:100E5000704740F6882303FB01000830704740F6D6
:100E6000882303FB010008307047012070471020E1
:100E7000704700EB01100830704700EB011008309C
:100E80007047084601F0B6BA10B5034B036004463C
:100E900008F087F8204610BD40E9010810B5044667
:100EA000FFF7F2FF204648211CF082F9204610BDD2
:100EB00010B5034B0360044608F073F8204610BDDC
:100EC0000CE9010810B50446FFF7F2FF20464FF485
:100ED00029611CF06DF9204610BD000010B5034BD0
:100EE0000360044608F05DF8204610BDD8E801080C
:100EF00010B50446FFF7F2FF204618211CF058F900
:100F0000204610BD10B5084B0360044600F6BC2017
:100F1000FFF7BAFF04F12C00FFF7CAFF04F1140039
:100F2000FFF7DCFF204610BD74E9010808B5024850
:100F3000FFF7E8FF08BD00BFBC01002010B5044664
:100F4000FFF7E0FF204640F664411CF031F92046EF
:100F500010BD00002DE9F34101F03CF8054601F019
:100F60003DF80024014623462846224600940EF010
:100F7000B3FC254B254A264D1A60204602F094F911
:100F800024480EF011FC2B78BFF35B8FDB0735D4C0
:100F900028461CF00FF988B31F4C204B236004F641
:100FA000083604F1140004F12C0804F6BC27606034
:100FB000C4F80880E760266107F0F4FF184B63610E
:100FC000404607F0EFFF174BE362384607F0EAFFB1
:100FD000154BC4F8BC3A04F6043002F071FD224609
:100FE00004F60431304602F0D5F9304601F002FA39
:100FF0000E481CF029F928461CF0E8F80C4802B00D
:10100000BDE8F041FFF764BCA4320120401C002081
:10101000B801002008000020BC01002074E901088C
:10102000D8E801080CE9010840E901082D0F000883
:10103000C41B00200148FFF75DBC00BFC41B00209B
:1010400070B5224E224C234D234B23603046FFF7D0
:10105000B3FD284612F00CFF204B2148DC60002233
:101060004FF48071C3E912121E491A86C3E91A129D
:101070001D4999671D4983F858200B60F0210180B4
:101080001B485A6601801B4883F870204FF4A071FA
:10109000C3E90422C3E90622C3E90822C3E90A22FC
:1010A000C3E90E22C3E91022C3E91422C3E91722BF
:1010B0005A67C3E9016501800F4801800F490A7032
:1010C000012283F834200E4A1A6070BD240E0020DD
:1010D000200E0020441C0020CCE30108C41B00208B
:1010E0003C320120010000010000010148320120D2
:1010F000423201203E3201204432012040320120A0
:1011000058E501080148FFF733BD00BF240E002059
:10111000034B902283F85A2383F85823704700BF6B
:1011200000E100E0094A0A49D3680A48C3F30A0308
:10113000013B9BB20B801169C1F30A0101390180A7
:101140001364536B43F0010353637047006801401D
:10115000CC1C0020CA1C0020014BD3F8AC00704707
:1011600000680140024B0122C3F8AC105A6270477C
:101170000068014070B5044608F011FA23685D6EFE
:101180000BF0FEFA01462046A8472368054AD3F82B
:1011900088502046AC460023BDE87040A2F51631C9
:1011A000604700BF00B004D008F0E0B990F84B30C1
:1011B00013B1024B01221A7008F0E4B9C81C0020D8
:1011C00008F09EB908F0FFBA034B4FF080629A60B6
:1011D0004FF080729A60704700E100E0084B4FF0DA
:1011E0008062C3F88820BFF34F8FBFF36F8F4FF03B
:1011F0008072C3F88820BFF34F8FBFF36F8F7047A3
:1012000000E100E010B5144C236823B3134B144ADB
:101210001B6C11888B4213D1124B198804F012FBFE
:10122000226892F86A30013382F86A30FFF74EFC88
:10123000206808F0F3FEBDE810400020FFF78EBAEA
:1012400004F000FB206803681B6A9847BDE8104063
:101250000020FFF7ADBA10BD483201200068014000
:10126000CC1C0020CA1C002007B5064BADF80600B8
:101270001B68054801220DF1060105F02FF803B0A7
:101280005DF804FB10000020641E0020F7B5304E0E
:10129000304C306805F065FE054678B904212046DB
:1012A00003F0E4FC00280CBF52234E238DF80430D9
:1012B000306864232A4601A905F0F4FD264F3868FA
:1012C00005F04FFE08210546204603F0CFFC0246FC
:1012D00058B9002D0CBF4C234E238DF805303868CB
:1012E00064230DF1050105F0DDFD1C4F386805F0A4
:1012F00038FE054680B91021204603F0B7FC0028CF
:101300000CBF55234E238DF80630386864232A46D7
:101310000DF1060105F0C6FD114F386805F021FEFC
:10132000054680B92021204603F0A0FC00280CBF10
:1013300044234E238DF80730386864232A460DF184
:10134000070105F0AFFD642005F0BFFCA1E700BF79
:10135000D81C002000100240DC1C0020E01C0020F3
:10136000E41C002030B595B0102200210AA81BF023
:10137000D9FF1422002103A81BF0D4FF00241D4B29
:1013800001941A6C42F080521A641B6C03F0805373
:101390000193019B184B02941A6842F440421A6070
:1013A0001B6803F4404302930122029B4FF48033F5
:1013B000CDE9082302254FF48003CDE90E5308211F
:1013C0004FF4A873CDE9101308A8042313931295C2
:1013D00004F056FA0F23CDE903354FF4A0504FF433
:1013E0008053CDE90603052103A8059404F026FCEB
:1013F00015B030BD00380240007000402DE9804833
:101400009BB003F0AFF9FFF7ADFF142200210DA848
:1014100000241BF087FFC64B00941A6BC548C64ECC
:1014200042F010021A631A6B02F010020092009A46
:1014300001941A6B42F020021A631A6B02F0200228
:101440000192019A02941A6B42F080021A631A6B9D
:1014500002F080020292029A03941A6B42F0040294
:101460001A631A6B02F004020392039A04941A6B33
:1014700042F001021A631A6B02F001020492049A0C
:1014800005941A6B42F002021A631A6B02F0020210
:101490000592059A06941A6B42F040021A631A6B81
:1014A00002F040020692069A07941A6B42F0080274
:1014B0001A631B6B03F00803079322463C21079B2A
:1014C00003F0DAFB9D482246042103F0D5FB2246B7
:1014D0009B484FF44051012503F0CEFB4FF0030928
:1014E0003C239448CDF840900DA94FF002084FF0EE
:1014F000040ACDE90D350F9403F0D2FA8F480F940A
:101500000DA9CDE90DA5CDF8408003F0C9FA4FF43F
:1015100040538B480DA9CDE90D35CDE90F4803F0B7
:10152000BFFA88480F940DA9CDE90D5403F0B8FA1D
:1015300080480DA90827CDE90DA4CDE90F5403F08B
:10154000AFFA7C480DA94FF0100BCDE90D74CDE931
:101550000F5403F0A5FA77480DA9CDE90DB4CDE9F4
:101560000F5403F09DFA0DA920237248CDE90D34E4
:10157000CDE90F5403F094FA7348744B036003F001
:1015800083F9734A734B3462C6E9002330464FF443
:101590008043C6E90434C6E90244C6E9064403F0C0
:1015A00055FD5946304603F091FF2146304603F081
:1015B000ACFF6948694984624FF48273C0E9001343
:1015C0004FF400761823C0E906630A23644EC36211
:1015D000C0E90244C0E90444C0E9084404F022FE22
:1015E000604BC6F810B04FF0400CC6E900354FF420
:1015F000C073C6E905C34FF40063C6E908344FF46D
:101600000053B3620DA907233046CDE90E3ACDE968
:101610001039C6E9024AF461CDE91288CDF8348068
:1016200004F000FD4FF6FF7209A93046CDE90957D5
:10163000CDE90B54089404F015FD284603F0BEF8DC
:101640004FF6FF7209A93046CDE90987CDE90B5461
:1016500004F008FD4FF6FF7209A93046CDE909975D
:10166000CDE90BA404F0FEFC4FF40C730893089B27
:101670000C934FF6FF7209A93046CDE909A70B95E7
:1016800004F0F0FC40F26A51304604F009FD3422C7
:1016900021460DEB02001BF045FE334E334BB48662
:1016A000C6E900340923C6E905351D2340F20D1EA5
:1016B000C6E9073940F24313C6E909E3304640F270
:1016C000471340F21719C6E90B93C6E90244346187
:1016D00086F8364003F0BEFFFF21F022CDE9121458
:1016E0004FF4806A05214FF4A073CDE90E24CDE9B3
:1016F00014A1CDE916420DA922463046CDE9103895
:101700001B4E18930D94ADF864408DF8664004F0BC
:101710006CF8184B33601B6898473368164EDB68CB
:101720009847164BC6E90A48C6E90C4428E000BFB2
:101730000038024000100240341D00200008024022
:10174000000C024000000240EC1C0020003002406F
:10175000005C0040A0860100641E00200050014093
:10176000301E0020400100A0881D002000680140BC
:10177000D41C00201C000020F41C002000B00240FB
:101780003046C6E90034C6E9028403F08DF82946E4
:10179000304603F041F9FEF726FF05F009FA164A34
:1017A0002946384605F043FB144B154A1860294674
:1017B000384605F03CFB134B134A1860294638465F
:1017C00005F035FB114B124A18602946384605F0E2
:1017D0002EFB104B104A18602146104805F014FAF1
:1017E0000F4B104A186021460F4805F00DFA0F4BB9
:1017F000186005F0EFF9FEE7D8E90108D81C0020D1
:10180000F0E90108DC1C002008EA0108E01C0020C7
:1018100020EA0108E41C002038EA01088D120008C3
:10182000E81C0020B4E90108EB050008D01C0020EA
:10183000704770477FB5094B8DF817201B680293DE
:101840000DF117020123009201930A460146044854
:1018500003F0A4FC07B05DF804FB00BF0C000020FF
:10186000341D00207FB500238DF81730084B1B680E
:1018700002930A4601230DF11701009101930146DD
:10188000044803F01BFD9DF8170007B05DF804FB4A
:101890000C000020341D00201FB5084C2468009265
:1018A000CDE901340A4601230146054803F006FD4F
:1018B000003818BF012004B010BD00BF0C0000208C
:1018C000341D002002F07ABF08B50648002204212A
:1018D00003F0D2F9BDE8084002480122042103F0D8
:1018E000CBB900BF0008024038B50B4D04460122B9
:1018F0000A484FF4005103F0BFF9002204212846A2
:1019000003F0BAF92046FFF7AFFC28460122BDE8F4
:101910003840042103F0B0B900080240000C024036
:1019200038B50B4D044600220A484FF4005103F02D
:10193000A3F900220421284603F09EF92046FFF770
:1019400093FC28460122BDE83840042103F094B9F5
:1019500000080240000C0240F7B5144E144F054633
:101960000C4630460022042103F086F900224FF491
:101970000051384603F080F92846FFF775FC0D4BFF
:101980000D481B68224601A904F04AFE3846012290
:101990004FF40051019C03F06FF9304601220421FD
:1019A00003F06AF9204603B0F0BD00BF0008024012
:1019B000000C024010000020641E002002F0FEBE59
:1019C0000268034B9A4201D102F0E6BE704700BFA5
:1019D000001000407047000082B00E4B00220092C1
:1019E000596C41F480415964596C01F48041009173
:1019F00000990192196C41F0805119641B6C03F03D
:101A000080530193019B0F216FF0010002B002F09F
:101A1000FBBE00BF003802400268094B9A4282B008
:101A20000BD100230193074B1A6B42F480521A63C7
:101A30001B6B03F480530193019B02B0704700BFFE
:101A4000003002400038024007B50F4B02689A424E
:101A500016D10022A3F5F0430192196B41F4000165
:101A600019631B6B03F40003019305215A20019BAA
:101A700002F0CAFE5A2003B05DF804EB02F0F6BE95
:101A800003B05DF804FB00BF00B002402DE9F04355
:101A9000044689B01422002103A81BF043FC2268ED
:101AA000244B9A4243D1244C244800250095236BB3
:101AB00043F004032363236B03F004030093009BB0
:101AC0000195236B43F001032363236B03F00103B0
:101AD0000193019B4FF012094FF400734FF001087E
:101AE0000327042603A9CDE90339CDE90587079625
:101AF00002F0D6FF4FF480731148079603A9CDE991
:101B00000339CDE9058702F0CBFF0295236C43F43E
:101B100000032364236C03F400030293029B236AF3
:101B200043F400032362236A23F40003236209B011
:101B3000BDE8F083005C004000380240000802402D
:101B400000000240F0B599B004461422002107A815
:101B50001BF0E8FB30220DEB020000211BF0E2FB42
:101B600022685E4B9A4240F0B78008230C93C02352
:101B70001093042312930CA84FF40033159304F030
:101B800027F908B1FFF726FF554B5648002400946B
:101B90005A6C42F080625A645A6C02F08062009281
:101BA000009A01941A6B42F020021A631A6B02F039
:101BB00020020192019A02941A6B42F001021A6308
:101BC0001A6B02F001020292029A03941A6B42F01D
:101BD00002021A631A6B02F002020392039A04943F
:101BE0001A6B42F040021A631A6B02F04002049230
:101BF000049A05941A6B42F004021A631A6B02F0FD
:101C000004020592059A06941A6B42F008021A63C0
:101C10001B6B03F00803069302250E26069B0B960A
:101C20004FF4806307A9CDE90735CDE9094502F0F6
:101C300037FF41F658032C480B9607A9CDE9073525
:101C40000927CDE9094502F02BFF032327480B970D
:101C500007A9CDE90735CDE9094502F021FF4FF489
:101C6000706322480B9607A9CDE90735CDE90945F0
:101C700002F016FF4FF40C631D480B9607A9CDE93F
:101C80000735CDE9094502F00BFFC02319480B9633
:101C900007A9CDE90735CDE9094502F001FF082381
:101CA00015480B9607A9CDE90735CDE9094502F09E
:101CB000F7FE4FF4A0530E480B9707A9CDE907355F
:101CC000CDE9094502F0ECFE58202246052102F03C
:101CD0009BFD582002F0CAFD19B0F0BD006801401C
:101CE000003802400014024000000240000402409C
:101CF0000018024000080240000C024010B50446E3
:101D000088B01422002103A81BF00CFB2268144B9E
:101D10009A4223D103F56843002101915A6C11487E
:101D200042F480125A645A6C02F480120192019AB1
:101D300002911A6B42F020021A631B6B03F020031E
:101D40000293029B4FF4607202230321CDE9032327
:101D50000523CDE9061303A902F0A2FE08B010BDC9
:101D600000500140001402402DE9F04186B00023EC
:101D700003932B4B1C68002C4FD14FF00108C3F884
:101D80000080284B00949A6B274842EA08029A6325
:101D90009B6B03EA08030093022703260C25009B94
:101DA00001A94FF63F03CDE90137CDE9046502F003
:101DB00077FE1E48059501A9CDE90187CDE90346C7
:101DC00002F06EFE48F233131948059501A9CDE9DA
:101DD0000137CDE9034602F063FE4FF683731548E1
:101DE000059501A9CDE90137CDE9034602F058FE7A
:101DF0004CF203731048059501A9CDE90137CDE9EF
:101E0000034602F04DFE60230C48059501A9CDE97B
:101E10000137CDE9034602F043FE06B0BDE8F0818C
:101E2000BC1E00200038024000140240000802409E
:101E30000018024000100240000C02400004024062
:101E400030B5014689B00022362002F0DDFC362094
:101E500002F00CFD0025154B02951A6C144C42F053
:101E600010021A641B6C03F01003029301A903A86B
:101E7000029B03F08FFF03F07DFF0E4B236040F2C7
:101E8000E733E36040000C4BB0FBF3F001386060D7
:101E900020462561A56004F0AFFD20B9204604F07E
:101EA00065FC09B030BD0120FBE700BF00380240EF
:101EB000C01E00200010004040420F007047FEE7A7
:101EC000FEE7FEE7FEE77047014804F08DBC00BF67
:101ED000C01E0020014803F02BBC00BF881D00205D
:101EE000014802F00FBD00BFF41C00200120704724
:101EF00008B51BF0BDF9162303604FF0FF3008BD95
:101F000008B51BF0B5F916230360FEE770B50D4662
:101F100014460E46731B9C4201DC204670BDAFF395
:101F2000008006F8010BF5E770B50D4614460E4625
:101F3000731B9C4201DC204670BD16F8010BAFF309
:101F40000080F5E74FF0FF3070474FF400534B60CF
:101F50000020704701207047002070470A4A11682E
:101F600008B5034609B90949116010686946034478
:101F70008B4206D91BF07CF90C2303604FF0FF3035
:101F800008BD1360FCE700BF081F0020403D012092
:101F9000704710B5042104461BF00AF9204610BD15
:101FA00008B5032913D8DFE801F002060A0E01F094
:101FB000C7F9006808BD01F0C3F94068FAE701F00D
:101FC000BFF98068F6E701F0BBF9C068F2E70020CE
:101FD000F0E700000048704770EA010811207047E0
:101FE00013B5002451B1036801948DF8034001AA90
:101FF0009C680DF10303A04702B010BD0846FBE743
:10200000C0897047008A7047C088704780887047D1
:10201000807A00F07F007047807AC0097047818025
:102020007047C18070470181704741817047704798
:10203000704770477047704710B4C4880368121B1C
:1020400084885B6D091B12B25DF8044B09B2184716
:10205000806A704790F8252012B103685B691847C1
:102060007047704710B5082104461BF0A1F82046C0
:1020700010BD7047704700F598730868496803C33E
:10208000704770477047416070477047064BC0F813
:102090004C310023C0F8503100F5A273C0F848015C
:1020A000C0F84031704700BF2D22000801230372A1
:1020B000704770477047704710B4C2684168541049
:1020C000034601EB6200D20748BF0A599B685DF8DE
:1020D000044B48BFD358184743682BB183682BB9CA
:1020E000C06800F001007047184670470120704733
:1020F00010B50C2104461BF05BF8204610BD10B54E
:10210000102104461BF054F8204610BD10B54FF4C2
:10211000AE7104461BF04CF8204610BD10B54021AE
:1021200004461BF045F8204610BD10B50AF028FB08
:102130000368BDE81040DB6B18470000054B1B78B7
:1021400001462BB1406818B103680C315B6E18472B
:10215000704700BF47320120037A70B50546BBB90E
:1021600040680368DB69984704464CB1A1886B8FCF
:10217000C91A236820461B6B09B29847A469F4E783
:102180006868036805F10C011B6EBDE870401847D4
:1021900070BD70B5044690F8390094F838300130BD
:1021A000C0B2984284F8390005D901232372002374
:1021B00084F8393070BDB4F93A2000210BF0FAFFF1
:1021C00010F0010283B206D04FF6FF710028D8BF8D
:1021D0000A46981800B2238AC01AA087606803686C
:1021E000DB69984705464DB1A988A38F19442B6830
:1021F00028461B6B09B29847AD69F4E7606803682D
:10220000BDE870405B69184710B50446D0F840013E
:1022100058B10368DB68984738B1D4F840010368C7
:102220009B6898470023C4F8403110BD2DE9F14F59
:10223000D0E9555A0746A86803681B6A9847EF28F3
:1022400005D8464B464AA32146481AF0DFFF686886
:1022500003681B6A98470F2803D8434B404AA421C0
:10226000F2E7E86803681B6A98470B2803D83F4BDE
:102270003B4AA521E8E70AF083FADFF8F89004303A
:102280000AF0BCFAD9F8000010B10368DB6898477F
:10229000D9F8000010B103681B689847DFF8D880B0
:1022A000D8F8000010B103685B699847D7F83C0183
:1022B00010B103685B689847D8F8000010B1036854
:1022C0001B689847D7F83C0110B103689B68984792
:1022D000E868036800215B6A98474FF0000B244BC5
:1022E00003600446C0F804B080F808B0A86803682A
:1022F00059465B6A9847064601F0D6FB6868036852
:1023000059465B6A98473146054601F0A9FBC9F872
:102310000040C7F83C51C8F80060E5B12B1DCAF871
:1023200000303368C5F808A03046DB68F56398478D
:102330002B6828461B689847214630460BF034FF2F
:10234000236820461B69984723685B69204601B0D3
:10235000BDE8F04F18472B46E1E700BFD4EB01087A
:1023600062EC01086CED0108B3ED010856EE0108BE
:10237000A8F101088832012084320120044B1B6837
:1023800093F858200AB1D86C00B99868704700BF1C
:1023900048320120F8B5044617460E460AF0FCFA0A
:1023A000104B1C60104B2360104B0025C4E95135C5
:1023B0000F4BC4E953551868036801219B68C4E9B1
:1023C0004F55C4E955769847284600F06DFFFFF752
:1023D000D5FF13F07CFBFFF7D1FF13F0F3FB204692
:1023E000F8BD00BF9432012054F101083CF101080E
:1023F00048320120064BC0F84C310023C0F8503160
:1024000000F5A273C0F84801C0F84031704700BF22
:102410002D220008064BC0F84C310023C0F8503183
:1024200000F5A273C0F84801C0F84031704700BF02
:102430000D260008064BC0F84C310023C0F850317F
:1024400000F5A273C0F84801C0F84031704700BFE2
:10245000C92400082DE9F04105460026164B4660C8
:10246000067245F80C3B044628460F4607F0B0FFBD
:10247000124B84F838701B7884F83960A68723B92A
:10248000012323722046BDE8F0810D4B0D4FB3F9B7
:102490000080E368B7F900109B6B266128469847D7
:1024A000E3684146DB6B28469847284607F00BFF58
:1024B0003B885B426387E5E7CCF1010847320120A6
:1024C0003E3201203C3201202DE9F047D0E9554A47
:1024D0000746A06803681B6A984740F6872398421E
:1024E00005D8434B434AA32143481AF08FFE606846
:1024F00003681B6A98470F2803D8404B3D4AA42124
:10250000F2E7E06803681B6A98473F2803D83C4B12
:10251000384AA521E8E70AF033F9DFF8E8900430FB
:102520000AF06CF9D9F8000010B10368DB6898472D
:10253000D9F8000010B103681B689847DFF8C8801D
:10254000D8F8000010B103685B699847D7F83C01E0
:1025500010B103685B689847D8F8000010B10368B1
:102560001B689847D7F83C0110B103689B689847EF
:10257000E068036800215B6A984714210546FFF76D
:1025800069FFA068036800215B6A9847064600F06F
:1025900061FF6068036800215B6A98473146044622
:1025A00000F010FFC9F80050C7F83C41C8F80060BF
:1025B000DCB1231DCAF800303368C4F808A03046E7
:1025C000DB68F4639847236820461B6898472946D0
:1025D00030460BF0E9FD2B6828461B6998472B68AD
:1025E00028465B69BDE8F04718472346E2E700BF8D
:1025F000D4EB0108F9EE01086CED0108B3ED010818
:1026000056EE010888320120843201202DE9F0477E
:10261000D0E9554A0746A06803681B6A9847EF2827
:1026200005D8434B434AA32143481AF0EFFD6068A5
:1026300003681B6A98470F2803D8404B3D4AA421E2
:10264000F2E7E06803681B6A98473F2803D83C4BD1
:10265000384AA521E8E70AF093F8DFF8E89004305B
:102660000AF0CCF8D9F8000010B10368DB6898478D
:10267000D9F8000010B103681B689847DFF8C880DC
:10268000D8F8000010B103685B699847D7F83C019F
:1026900010B103685B689847D8F8000010B1036870
:1026A0001B689847D7F83C0110B103689B689847AE
:1026B000E068036800215B6A984714210546FFF72C
:1026C000C9FEA068036800215B6A9847064601F0CE
:1026D000EBF96068036800215B6A9847314604465D
:1026E00001F0BEF9C9F80050C7F83C41C8F80060D5
:1026F000DCB1231DCAF800303368C4F808A03046A6
:10270000DB68F4639847236820461B68984729468E
:1027100030460BF049FD2B6828461B6998472B680B
:1027200028465B69BDE8F04718472346E2E700BF4B
:10273000D4EB010816F001086CED0108B3ED0108B7
:1027400056EE0108883201208432012000207047B3
:102750004FF6FF7383814FF0FF3303621368C36149
:10276000106070477047704770477047704790F827
:1027700025201AB190F8242002B11860704730B5B6
:102780000368018185B06D460146D3F88430044664
:102790002846984795E807003C3484E8070005B0D0
:1027A00030BD30B50368418185B06D460146D3F830
:1027B000843004462846984795E807003C3484E86E
:1027C000070005B030BD0022028042808280C280B6
:1027D000704780F83610704770B5036804461B6B6D
:1027E000154698472368294620465B6EBDE8704031
:1027F000184700207047806C7047704770477047DB
:10280000704730B4C26844685510034604EB620058
:10281000D20748BF62599B6830BC48BFD35818479D
:1028200043682BB183682BB9C06800F00100704782
:10283000184670470120704710B54C2104461AF025
:10284000B7FC204610BD10B5102104461AF0B0FCAC
:10285000204610BD10B54FF40F7104461AF0A8FCC5
:10286000204610BD08B5FFF7F5FB08BD036870B53D
:102870005E6B124B1B6804468DB22BB9104B114A8C
:102880006C2111481AF0C2FC1049828D09889142CE
:1028900003D80F4B0B4A6D21F3E713F812200D4BB1
:1028A0001B6853F8220003681B6B9847281A01B273
:1028B00033462046BDE87040184700BF98320120DB
:1028C000E8F101082AF2010865F201089C320120B2
:1028D000ACF20108A032012000F5E270884208B590
:1028E00005D109F04DFFBDE80840FFF793BD08BDD5
:1028F00000224FF0FF31C0E900218260704770B5BF
:10290000036804461B6B15469847236829462046F2
:102910005B6BBDE87040184770B504461D46BDF9B5
:102920001060FFF7ECFF2368294620469B6B984711
:10293000236831462046DB6BBDE870401847000035
:102940000022C0E90122C0E90322C0E90522C0E952
:1029500007224FF480728284014A0260704700BFF0
:1029600030F3010838B5262204460D4600211AF03E
:10297000D9FC2046FFF7E4FF064B23602B88E38455
:10298000FF23204684F82830294608F0C4F8204662
:1029900038BD00BF6401020810B52622044600219C
:1029A0001AF0C0FC2046FFF7CBFF0A4BA3624FF69C
:1029B000FF73A3854FF47F020023C4E90C32064A5B
:1029C00022604FF0FF32C4E910232387E363A3643E
:1029D000204610BDCCEB010898F301081A4B73B5E3
:1029E0001B88018F8B4206462AD9184B1B682BB9CE
:1029F000174B184A18486C211AF008FC13F81120DC
:102A0000164B1B6853F82250154B186800F088FCD1
:102A10002B6801909B6B284698472B6801999B6C0B
:102A20000446284698472B6801995B6A14FB00F41A
:102A300028469847A4B20444A6F8464002B070BDA8
:102A40000023A0F84630F9E79C320120983201209B
:102A5000E8F101082AF2010865F20108A03201201C
:102A6000A43201202DE9F04F2DED048B04468BB0EC
:102A7000274600250BF0ECF9AE4BE56347F8403BE9
:102A80002622294638461AF04DFC3846FFF758FFF3
:102A9000A94B2364FF2384F8663004F16C034FF6DE
:102AA000FF7608A91846A56609EE103AADF8206031
:102AB000FFF758FF04F1980304F1C409184608A968
:102AC00009EE903A04F1F008ADF82060FFF74AFFF4
:102AD00008A94846ADF82060FFF744FF4046FFF7DD
:102AE0005BFF04F59E7308A9184608EE103AADF88E
:102AF0002060FFF737FF914BC4F83C314FF0010BDA
:102B00004FF0FF33C4E95B3B04F5BC731846C4F8CF
:102B1000685184F8745104F5E27A08EE903AFFF7B0
:102B20003BFF504608F02EF9854BC4E98B34854BAA
:102B3000C4E98D354FF4A0732A46384600932946E0
:102B4000F023FFF7E9FE261D4FF07F43A3663946C9
:102B5000304606F039FA5A4619EE100A8621FFF778
:102B6000CEFE0C2719EE100A08A9ADF8207007F068
:102B7000D2FF19EE101A304606F026FA5A4619EE20
:102B8000900ACC21FFF7BBFE19EE900A08A9ADF818
:102B9000207007F0C0FF19EE901A304606F014FAC4
:102BA0005A464846A921FFF7AAFE484608A9ADF8AB
:102BB000207007F0B0FF4946304606F005FA1D23A5
:102BC00004220093082160234046FFF7A5FE4FF042
:102BD000FF33C4F82031D4F8F030A4F8245102AF08
:102BE000D3F8843041463846984797E8070004F503
:102BF000967383E80700544B1B6804F503792BB9DF
:102C0000524B534A602153481AF000FB524B1B8829
:102C1000022B03D8514B4E4A6121F4E7504B02215D
:102C2000186800F07DFB4F4A0346052148460CF02A
:102C3000ADFD0323C4F8389108A9DFF82C91ADF855
:102C400024304046CDF8209007F0D6FD414630466E
:102C500006F0BAF918EE100A5A46D021FFF74FFED7
:102C6000092218EE100A082107F0A0FC18EE100A3D
:102C7000594607F0AEFC18EE101A304684F864513D
:102C800006F0A2F9222318EE900A00937222294638
:102C9000F023FFF741FE4FF0FF33C4F8A831D4F81A
:102CA0007831A4F8AC5118EE901A3846D3F8843035
:102CB000984797E8070004F5DA7383E8070004F201
:102CC0001623C4F8C03118EE900A08A9A4F81652C9
:102CD000CDF82090ADF824B007F08EFD18EE901AD4
:102CE000304606F071F95046A0222621FFF707FE74
:102CF000022308AA07A95046ADF82030ADF81CB051
:102D000007F0D7FD5046A4F8FC51FFF767FE4FF0DF
:102D1000FF33C4E9803304F50B733046C4F8EC315B
:102D2000514606F051F920460BB0BDEC048BBDE8CE
:102D3000F08F00BF40F40108FC0002088000020888
:102D400028F40108D928000898320120E8F1010888
:102D5000EAF2010865F201089C320120ACF2010898
:102D6000A432012022F30108CCEB0108406A70472D
:102D7000806A704770478B88C0690A68DB0A50F820
:102D800023001044704710B5C2B1137BB3B1547B1C
:102D9000D27A240204F4E0641443026A98B202EB8B
:102DA000840213888B4202D192F9020010BD05D82B
:102DB000013880B204320028F3D1F7E70020F5E7AC
:102DC00010B52C2104461AF0F3F9204610BD00007E
:102DD00030B58BB00446BDF860500895BDF85C5026
:102DE00007959DF8505006959DF84C5005959DF817
:102DF000485004959DF8445003959DF84050029525
:102E00009DF83C500195BDF8385000950AF026FE1B
:102E1000064B2360159BE361169B2362199B63623B
:102E20001A9BA36220460BB030BD00BF74F40108AA
:102E300070477047704730B4C26844685510034605
:102E400004EB6200D20748BF62599B6830BC48BFA0
:102E5000D358184743682BB183682BB9C06800F07A
:102E600001007047184670470120704710B51021C7
:102E700004461AF09DF9204610BD10B5F021044615
:102E80001AF096F9204610BD9830884208B505D151
:102E900009F076FCBDE80840FFF7CCBA08BD000099
:102EA0002DE9F341044626460AF0D2FF0025434BA4
:102EB000E56346F8403B424B2566C4E910354FF4C4
:102EC0008072FF2304F16C08A4F8642084F8663053
:102ED000A4F890204FF6FF733A4AE26604F198078F
:102EE000A4F8923084F8943001A9C4E91255C4E9D9
:102EF0001455C4E91655C4E91C55C4E91E55C4E966
:102F00002055C4E92255A5664046ADF8043007F0C7
:102F100002FE384607F036FF2B4BC4E938342B4B02
:102F20002A46C4E93A3529463046FFF7E8FC3046E0
:102F3000F021FFF778F830464FF4A071FFF775F8ED
:102F4000251D4FF07F43A3663146284606F03CF826
:102F50001B2240461421FFF7D2FC102301A9404652
:102F6000ADF8043007F0D7FD4146284606F02CF8AE
:102F70003846A0222321FFF7C2FC012301AA69469B
:102F8000ADF8003038460223ADF8043007F091FC6C
:102F90000423A4F8D0303846FFF720FD4FF0FF336C
:102FA000C4E9353304F1E0032846C4F8C03039469B
:102FB00006F00AF8204602B0BDE8F081ECF4010802
:102FC000FC00020864010208D4F40108892E0008FC
:102FD0007047000030B5174D2C78BFF35B8F14F0AD
:102FE00001048FB022D128461AF0E4F8F0B1124B58
:102FF000124913480A94CDE90B433F230993114B1F
:103000000893114B0594CDE9064301220423CDE931
:103010000332182300931722CDE90144FFF7D8FEAD
:103020000A481AF011F928461AF0D0F804480FB0EF
:1030300030BD00BF0C1F002018F501081411020854
:10304000101F002088120208E4120208D12F000885
:103050007047000030B5164D2C78BFF35B8F14F02D
:1030600001048FB021D128461AF0A4F8E8B1114B21
:10307000114912480A94CDE90B433F230993104BA1
:103080000893104B05940122CDE906430423CDE9B2
:10309000033214230093CDE90144FFF799FE0A4857
:1030A0001AF0D2F828461AF091F804480FB030BD53
:1030B0003C1F00206CFB010858120208401F002032
:1030C000D8120208E81202085130000870470000C8
:1030D00030B5164D2C78BFF35B8F14F001048FB020
:1030E00020D128461AF066F8E0B13F230993104B2F
:1030F0000893104B104911480A940122CDE9064368
:103100000423CDE903320A230093CDE90B44CDE932
:1031100001440594FFF75CFE09481AF095F828462B
:103120001AF054F805480FB030BD00BF6C1F0020E6
:10313000DC120208EC12020868120208701F00205C
:10314000CD3000087047000030B5164D2C78BFF325
:103150005B8F14F001048FB020D128461AF02AF8B2
:10316000E0B13F230993104B0893104B10491148CD
:103170000A940122CDE906430423CDE90332282332
:103180000093CDE90B44CDE901440594FFF720FEFF
:1031900009481AF059F828461AF018F805480FB0EF
:1031A00030BD00BF9C1F0020E0120208F012020890
:1031B00078120208A01F0020453100080020704747
:1031C000002070470EB403B503AB002153F8042B65
:1031D00001930AF06BFA02B05DF804EB03B070479C
:1031E0000CB407B504AB53F8042B01930AF05EFA54
:1031F00003B05DF804EB02B070470000436C10B5FB
:10320000044673B3038F2BB9184B194AC5211948CB
:1032100019F0FCFFC38E00EB43035B8C0BB30BF088
:103220000CFD238F012B03D8134B144ACB21EEE75F
:10323000E28E531C9BB2092B194688BFA3F10A01E9
:1032400004EB410140F63F10498C814209D10A2B21
:1032500004EB420228BF002304EB4303508C588444
:1032600051842046BDE810400BF0EABB8CFB0108FE
:1032700095FB010840FC01088AFC010898FC010844
:103280000BF0A5BB10B586B002AC84E806001A4668
:103290000AAB05930193099B00932146089B08F014
:1032A0000DFE06B010BD000038B518BB124B134818
:1032B0001B681349B3B11A689C681A4402605A68C3
:1032C0001A440A601C440F4B00221A8000F038F8A0
:1032D000054600F033F80C4B1C600C4B1D600C4B8A
:1032E000188007E00B4B03600B4B0B600B4B1C680B
:1032F000002CE8D138BD00BFCC1F0020D01F00201B
:10330000D41F0020D81F002098320120A0320120B5
:103310009C32012008130208F41202084813020824
:10332000044B1B6853F82100034B1B6803EB400060
:10333000704700BFD41F0020D01F00200520704719
:1033400000487047DC1F002010B5FFF783FE064CD5
:103350002060FFF7F9FE6060FFF7BAFEA060FFF79C
:1033600039FEE06010BD00BFDC1F0020704710B5C3
:103370004FF4AE71044619F01BFF204610BD10B586
:103380000446D0F8580100F09EFB2046BDE81040EE
:1033900009F092BA10B50446FEF7FCFF014B23601A
:1033A000204610BD74FD010870470438704770470F
:1033B00010B51021044619F0FBFE204610BDA0F107
:1033C0000400F5E710B500228260044AC16002F1F2
:1033D000080420320460426010BD00BFC0FD010837
:1033E00070470000F8B5144B0360044600F50D6605
:1033F00040F65C2540F6A407635960191B682C3D14
:103400009847BD42F8D104F5E365AE4205D056F8C1
:103410002C3D1B6830469847F7E704F51A76B5420D
:1034200005D055F83C3D1B6828469847F7E72046ED
:10343000FFF7E3F92046F8BDFCFD010810B504468E
:10344000FFF7D0FF204640F6882119F0B1FE204654
:1034500010BD00002DE9F04F05468FB0FFF702FBCD
:1034600005F50F79654B2B604FF6FF7802A94846AA
:10347000ADF80880FFF776FA05F51A77DFF884B122
:1034800005F5E36A3C460026204602A9ADF808800F
:10349000FFF768FA0123C4F800B0E662A4F83080B0
:1034A000A4F8328084F8343084F8356084F83660CB
:1034B00084F8376084F838603C345445E4D105F52D
:1034C0000D6A26464FF6FF78304602A92C36ADF835
:1034D0000880FFF747FA5645F6D1564605F6882884
:1034E0004FF6FF7B304602A92C36ADF808B0FFF747
:1034F00039FA4645F6D1424E02A800F0DBFBBDF892
:103500000C30B380BDF92430059AB3830A9BF26076
:103510003362069A0B9B32617362079A0C9B72614D
:10352000B362089ABDF83430B261B38505F104087E
:1035300002A800F0D1FB404605F5E27105F085FDDB
:10354000404605F5BC7105F080FD0E2302A94846F2
:10355000ADF8083007F0DFFAB6F90E20B6F90C1016
:103560004846FFF7CCF94046494605F02DFD4FF09F
:10357000040804F5DC70212240F241110190FFF7AC
:10358000BEF9D4F8B83101981B6EADF8088002A9D5
:1035900098472046212240F24111FFF7B0F92368F5
:1035A00000261B6EADF80860204602A92C3498470F
:1035B0005445DED134460326B4FBF6F303EB430354
:1035C000E31A012B13D0022B14D007220621384610
:1035D00006F0ECFF01343846142106F0FAFF142CF3
:1035E00007F13C07E8D128460FB0BDE8F08F09226B
:1035F0000821ECE70B220A21E9E700BFFCFD0108E6
:103600008C230020800002082DE9F04FC04BDFF82A
:1036100028831B7885B00546061D2BB3BD4B1B7850
:1036200013B3BD4C2378FBB900F5E2794946304627
:1036300005F0CAFC05F5BC77B8F80430B74A0A2192
:1036400005F216200CF0A2F83946304605F0BCFC15
:1036500048460AF055F938460AF052F9012323701A
:10366000AF4B186803F019FBAE4FDFF8D092386803
:103670004FF0000A8DF80BA003F073FC05F50F74F2
:10368000E0B14FF0FF33386852460DF10B0103F003
:1036900039FC9DF80B30522B40F0F580B8F928101A
:1036A000A14800F099FB0F23204603A9ADF80C3088
:1036B00007F031FAD9F8000003F055FCD9F8000002
:1036C00003F04FFCF0B14FF0FF33D9F800000022B7
:1036D0000DF10B0103F016FC9DF80B304C2B40F064
:1036E000E180D8F828109048494209B200F074FBF4
:1036F0000D23204603A9ADF80C3007F00CFA38680A
:1037000003F031FC894FDFF83892386803F029FC68
:10371000A8B14FF0FF33386800220DF10B0103F020
:10372000F1FB9DF80B30552B40F0CB807E48B8F96B
:10373000281000F053FBD9F8000003F014FCD9F86E
:10374000000003F00EFCB8B14FF0FF33D9F80000D1
:1037500000220DF10B0103F0D5FB9DF80B30442B3B
:1037600040F0B780D8F828106F48494209B200F0FD
:1037700035FB386803F0F7FB2046B8F90E20B8F99E
:103780000C10DFF8C091FEF757FC05F5E3642F46F7
:1037900005F50D6AB9F91030022B00F0A280042B58
:1037A00000F0B080012B07D12368B9F906209B6D8A
:1037B000B9F90410204698472C34544509F11C09E6
:1037C000E8D1DFF8849105F6882AB9F91030022B88
:1037D00000F0BC80042B00F0CA80012B07D12368C5
:1037E000B9F906209B6DB9F90410204698472C348E
:1037F000544509F11C09E8D14D4C05F5966AB4F918
:103800001030022B00F0B980042B00F0D380012B84
:1038100009D1D7F86832B4F906209B6DB4F90410C9
:1038200007F51A7098473C37BA4504F12004E6D1F1
:10383000404AB8F92C3011788B4216D0DBB21370A5
:10384000502285F8C02085F8EC2085F89420002BC4
:1038500000F0BE80FF22012B85F8C02005D0022B8E
:1038600085F8EC2018BF85F89420B8F804302B4A6E
:10387000052105F503700BF089FF30460AF040F88A
:1038800005B0BDE8F08F4E2B7FF418AF51462648A7
:1038900000F0A2FA0E2303A92046ADF80C3007F081
:1038A0003AF90BE74E2B7FF42DAF1F48002100F0B3
:1038B00093FA0E2303A92046ADF80C3007F02BF93C
:1038C00020E74E2B7FF43BAF1748002100F086FA2B
:1038D00035E74E2B7FF450AF1348002100F07EFAFD
:1038E0004AE72368B9F906209B6DB9F90410204610
:1038F00098472146304605F067FB0121484600F015
:10390000AFF959E72146304605F09FFB0321F5E763
:10391000D4240020D5240020F01F0020E8FD010859
:10392000EC1F0020D81C002094230020E01C002065
:10393000F41F0020140000208C230020DC1C002039
:10394000E41C0020BC230020742200202368B9F965
:1039500006209B6DB9F90410204698472146304651
:1039600005F032FB0121484600F07AF93FE7214695
:10397000304605F06AFB0321F5E7D7F86832B4F961
:1039800006209B6DB4F9041007F51A79484698474C
:10399000D7F86832D3F864B001231A4600214846AC
:1039A000D8474946304605F00FFB0121204600F07C
:1039B00057F938E7D7F8683207F51A7108469B6E51
:1039C000019198470199304605F03FFB0321EDE74F
:1039D000034B012230461A7009F092FF45E700BF01
:1039E000D524002010B5114C8AB0FEF707FF2068DF
:1039F00003F053F92022002102A819F093FC0C4B8C
:103A000001934FF480421823CDE90623002101AA37
:103A1000084803F0F9F8084A206000231370074AA9
:103A20001370074A13700AB010BD00BFEC1F0020CE
:103A3000EBFD0108693F0008D4240020D5240020B4
:103A4000F01F0020704704387047704710B51021F0
:103A5000044619F0ADFB204610BDA0F10400F5E7C7
:103A600010B500228260044AC16002F108042032CD
:103A70000460426010BD00BF28FE010870470000CE
:103A800010B5034B03600446FFF7D2F9204610BD82
:103A900058FE010810B50446FFF7F2FF2046F0215A
:103AA00019F086FB204610BD10B50446FFF7F8F963
:103AB000014B2360204610BD58FE0108FFF7B9B93D
:103AC000002202607047704710B5034B0360044644
:103AD00000F0B1F8204610BD8CFE010810B5044678
:103AE000FFF7F2FF20461C2119F062FB204610BDB3
:103AF00010B5044600F0AAF8064B23604FF4C873D3
:103B0000A3614FF018110023C4E90213024B236193
:103B1000204610BD8CFE010803009001B0F908306A
:103B200010B5B0F904405B429C420BDBF02C09DC81
:103B3000B0F90A30B0F906205B429A4202DBB2F5D6
:103B4000A07F05DD042303828369438200200EE009
:103B5000438A591A09B200294182F7DC83891C443F
:103B6000C38984801A448369C2804382012010BDC6
:103B700010B5034B0360044600F05DF8204610BD0D
:103B8000A0FE010810B50446FFF7F2FF20462021F1
:103B900019F00EFB204610BD10B5044600F056F893
:103BA000084B23604FF4167246F2A813C4E90623AB
:103BB0004FF020110022C4E90212034A2261A382BD
:103BC000204610BDA0FE010803005802B0F90830DD
:103BD000B0F904205B429A4210B508DBF02A06DCFB
:103BE000B0F90A30B0F906405B429C4207DA042380
:103BF0000382C36983828369438200200EE0438A83
:103C0000591A09B200294182F7DC83891A44C38911
:103C100082801C448369C4804382012010BD838A52
:103C2000591A09B20029D8BFC3698182DABF8382D9
:103C300001200020704770470020704710B5182100
:103C4000044619F0B5FA204610BD0000034A026090
:103C5000032202824FF0201282607047B4FE0108F6
:103C6000018270478180C28070478181C281704724
:103C700030B5B0F90820B0F90440B1F9045022443D
:103C8000AA4215DDB1F908302B449C4210DAB0F994
:103C90000630B0F90A20B1F906401A44A24207DD05
:103CA000B1F90A0020448342ACBF0020012030BD9E
:103CB0000020FCE710B5054B036000230446838019
:103CC000083000F033F8204610BD00BFC8FE0108E0
:103CD000838819448180704710B5044B044640F82E
:103CE000083B00F00FF8204610BD00BFC8FE0108D9
:103CF00010B50446FFF7F0FF2046302119F058FABE
:103D0000204610BD10B5034B03600446FFF793FF38
:103D1000204610BDD8FE010810B50446FFF7F2FF9B
:103D20002046282119F044FA204610BD10B504465B
:103D3000FFF78CFF03210A480A4B2162A1844FF050
:103D40001C11C4E9010142F21072236000214FF4FA
:103D5000C873C4E90632E160A2826382204610BDC6
:103D600068000401D8FE0108438A591A09B20029E3
:103D700041821FDC82888389C1891A44C38812B2B8
:103D80000B441BB281698280002AC380418207DA1A
:103D900000228280002B07DA0023C38001207047B5
:103DA000D02AF7DDD022F4E7B3F5907FF6DD4FF4AB
:103DB0009073F2E700207047838A591A09B20029EC
:103DC000D8BFC3698182DABF838201200020704797
:103DD000838C19448184704781817047C181704709
:103DE0002DE9F047214E224C3368DFF88880DFF858
:103DF00088901B1A054633601427B4F91030032B42
:103E000009D029462046FFF7E1FE013F04F12004D6
:103E1000F3D1BDE8F0873368002BF6DCD8F800302A
:103E200003F00102002A4FF6E0714FF6FF7A0CBF53
:103E3000F0214FF0010A032B94BF19F80320002250
:103E4000022BD4BF013300232046C8F80030FFF70F
:103E500009FF002251462046FFF707FF02212046B6
:103E6000FFF7FEFE42F210733360CEE71800002029
:103E7000F41F0020D8240020E4FE01082DE9F843B7
:103E8000014606461448154CDFF85480DFF854907C
:103E9000FFF792FF04F58C770546B4F91030032B39
:103EA00008D031462046FFF739FE1C34BC42F4D11D
:103EB000BDE8F883002DF8D0B8F80020B9F800105C
:103EC000103A92B22046FFF7CDFE02212046FFF7BE
:103ED000C7FE0025E9E700BF94230020BC23002093
:103EE000DE240020DC240020F7B51D4C05461426F6
:103EF0001C27B4F91030012B10D129462046FFF7BA
:103F00008EFE58B1174A00231046B2F9101003294B
:103F100018D001330A2B02F11C02F6D1013E04F144
:103F20002004E6D10F4C0A26B4F91030012B03D13E
:103F300029462046FFF7F2FD013E04F11C04F3D1AF
:103F400003B0F0BDE288A188103207FB030092B2F3
:103F50000190FFF787FE01980221FFF781FEDDE760
:103F6000F41F0020742200202DE9F74FDFF8DCA1B8
:103F7000DFF8DCB1002404EB0A064FF6CE721146DE
:103F80003046FFF76FFE04EB0B054FF6CE7211467D
:103F90002846FFF767FE4FF6FB7200213046FFF719
:103FA00064FE052200212846FFF75FFE032130460C
:103FB000FFF756FE1C3403212846FFF751FEB4F5E7
:103FC0008C7FD8D1594F00253C464FF6CE72114612
:103FD0002046FFF747FE013520460321FFF740FE4C
:103FE000142D04F12004F0D10026514B514A1B78C6
:103FF0001278013623B1002AFBD003B0BDE8F08F60
:10400000012E4D4C4D4DA2890CBF18461E464C4BFF
:104010001A804C4BE2891A8018BF01202870FFF7E4
:10402000DFFE297804F10800FFF79EFE2878FFF7ED
:1040300025FF2878FFF758FF3D464FF0140804F19C
:104040000809B5F91030012B5FD149462846FFF722
:104050000FFE002859D03C484FF0FF31FFF7B8FE63
:1040600004212846FFF7FCFD37484FF4827268218F
:10407000FFF7F8FD3D464FF01408B5F91030012B5D
:1040800019D1D1460A22B9F91010012943D1494664
:1040900028460192FFF7ECFD019A00283BD004214D
:1040A0002846FFF7DDFD04214846FFF7D9FD2248E9
:1040B0000521FFF70DFEB8F1010805F12005DCD15F
:1040C00021495D464FF00A08B5F91030012B27D180
:1040D0002846FFF7CDFD1C4910B31B484FF0FF31B8
:1040E000FFF776FE04212846FFF7BAFD16484FF485
:1040F00082726821FFF7B6FDB4F92C30002B3FF730
:1041000074AF0B4A012313706FE7B8F1010805F192
:10411000200596D1AEE7013A09F11C09B3D1CAE7EF
:10412000B8F1010805F11C05CED1E5E7F41F002028
:10413000D4240020D52400208C230020F11F00204F
:10414000DC240020DE24002094230020BC23002057
:104150007422002038B50F480F4DFFF7ABFD002447
:1041600028191C34FFF7C4FCB4F58C7FF8D10B4D33
:10417000002428191C34FFF7BBFCB4F58C7FF8D160
:10418000074D002428192034FFF706FDB4F5207FE1
:10419000F8D138BD8C230020BC23002074220020DD
:1041A000F41F002038B5144C1425D4F8603204F5FF
:1041B00018705B689847013DA4F12004F5D10F4CBD
:1041C0000A25D4F8FC3004F1FC005B689847013DF7
:1041D000A4F11C04F5D10A4C0A25D4F8FC3004F1F2
:1041E000FC005B689847013DA4F11C04F5D1BDE8D3
:1041F00038400448FFF770BDF41F002074220020EF
:10420000BC2300208C230020F02070474FF4A070C6
:1042100070472920FDF784BB2820FDF781BB08B536
:10422000FDF752FBCA20FDF77BFBC320FDF75CFBCB
:104230000820FDF759FB5020FDF756FBCF20FDF776
:104240006FFB0020FDF750FBC120FDF74DFB302038
:10425000FDF74AFBED20FDF763FB6420FDF744FB0F
:104260000320FDF741FB1220FDF73EFB8120FDF707
:104270003BFBE820FDF754FB8520FDF735FB0020D4
:10428000FDF732FB7820FDF72FFBCB20FDF748FB35
:104290003920FDF729FB2C20FDF726FB0020FDF738
:1042A00023FB3420FDF720FB0220FDF71DFBF72048
:1042B000FDF736FB2020FDF717FBEA20FDF730FB6A
:1042C0000020FDF711FB0020FDF70EFBB120FDF7EC
:1042D00027FB0020FDF708FB1B20FDF705FBB620A0
:1042E000FDF71EFB0A20FDF7FFFAA220FDF7FCFAFE
:1042F000C020FDF715FB1020FDF7F6FAC120FDF7F1
:104300000FFB1020FDF7F0FAC520FDF709FB452053
:10431000FDF7EAFA1520FDF7E7FAC720FDF700FBE5
:104320009020FDF7E1FA3620FDF7FAFAC820FDF7F4
:10433000DBFAF220FDF7F4FA0020FDF7D5FAB02001
:10434000FDF7EEFAC220FDF7CFFAB620FDF7E8FA46
:104350000A20FDF7C9FAA720FDF7C6FA2720FDF7C6
:10436000C3FA0420FDF7C0FA2A20FDF7D9FA00208D
:10437000FDF7BAFA0020FDF7B7FA0020FDF7B4FA0E
:10438000EF20FDF7B1FA2B20FDF7CAFA0020FDF768
:10439000ABFA0020FDF7A8FA0120FDF7A5FA3F20AF
:1043A000FDF7A2FAF620FDF7BBFA0120FDF79CFA13
:1043B0000020FDF799FA0620FDF796FA2C20FDF76C
:1043C000AFFAC820FDF7FAFA2620FDF7A9FA012076
:1043D000FDF78AFAE020FDF7A3FA0F20FDF784FA33
:1043E0002920FDF781FA2420FDF77EFA0C20FDF745
:1043F0007BFA0E20FDF778FA0920FDF775FA4E20BA
:10440000FDF772FA7820FDF76FFA3C20FDF76CFAA1
:104410000920FDF769FA1320FDF766FA0520FDF77C
:1044200063FA1720FDF760FA1120FDF75DFA00200E
:10443000FDF75AFAE120FDF773FA0020FDF754FA70
:104440001620FDF751FA1B20FDF74EFA0420FDF768
:104450004BFA1120FDF748FA0720FDF745FA312005
:10446000FDF742FA3320FDF73FFA4220FDF73CFA10
:104470000520FDF739FA0C20FDF736FA0A20FDF782
:1044800033FA2820FDF730FA2F20FDF72DFA0F2000
:10449000FDF72AFA1120FDF743FAC820FDF78EFA3E
:1044A0002920FDF73DFABDE808402C20FDF738BA79
:1044B00008B5FDF709FA0321D320FDF74DFA80B2C4
:1044C00008BD10B5C4B2022203212046FDF7B2F99F
:1044D0000A20FDF7F7F9204600220321FDF7AAF98B
:1044E000BDE810400220FDF7EDB938B50446E4B24E
:1044F000FDF79EF900212046FDF7B4F9012105469C
:104500002046FDF7AFF940EA052080B238BD10B56E
:10451000C4B240212046FDF7A5F9030607D54C217A
:104520002046FDF79FF9003818BF012010BD012279
:104530004B212046FDF77EF9204600224B21FDF756
:1045400079F90020F2E773B50423C4B20E4615468C
:10455000D7210DEB03022046FDF79EF9019B1BBA04
:104560001A0DC3F30B23328020462B8001224B21EE
:10457000FDF760F900224B212046FDF75BF902B000
:1045800070BD000010B50A4B1A78904204460DD059
:10459000597888420AD00AB141B901229C54FDF7EA
:1045A00047F92046BDE81040FFF78BBF10BD00BFA4
:1045B000E024002010B5C4B209212046FDF752F9CD
:1045C00040F00100C2B209212046BDE81040FDF7CD
:1045D00031B910B5C4B209212046FDF743F90921CC
:1045E00000F0FE022046BDE81040FDF723B938B5C3
:1045F000C4B20D4620460A21FDF734F92843C2B261
:104600000A212046BDE83840FDF714B907B50190EE
:10461000FDF70FF901981F21FFF7E9FF019803B09B
:104620005DF804EBFFF7C6BF38B5C4B20D462046AF
:104630000A21FDF717F920EA0500C2B20A21204637
:10464000BDE83840FDF7F6B810B50446FFF7C1FFE6
:1046500020461F21BDE81040FFF7E6BF10B5C0B2ED
:104660000C460B21FDF7FEF8204010BD1F21FFF77F
:10467000F5BF0A46C0B20B21FDF7DCB81F21FFF7DA
:10468000F8BF38B5C4B20D4620461721FDF7EAF849
:1046900020EA0500C2B217212046BDE83840FDF7E8
:1046A000C9B870B5C4B2064604212046FDF7DAF851
:1046B000042100F0FB0205462046FDF7BBF830461A
:1046C000F021FFF7DEFF05F0F80220460421FDF798
:1046D000B1F8492220212046FDF7ACF80220FDF771
:1046E000F1F8204601222121FDF7A4F820469A2264
:1046F0004121FDF79FF8204601224A21FDF79AF853
:10470000204601224B21FDF795F8204600224B213F
:10471000FDF790F8204601225621FDF78BF8204640
:1047200001225821FDF786F8204601224021FDF79D
:1047300081F82046FF220B21FDF77CF8BDE8704090
:104740000220FDF7BFB80000054BD3F8882042F4E3
:104750007002C3F888204FF000629A60704700BF73
:1047600000ED00E008B50B4B1A6842F400721A60C5
:104770001A6842F480621A601A6842F480721A6001
:10478000032000F02FF80020FDF75AFBFDF724F975
:10479000002008BD003C0240034A044B11681B780E
:1047A0000B441360704700BFE42400208000002009
:1047B000014B1868704700BFE424002038B5044658
:1047C000FFF7F6FF631C1CBF054B1B78054618BF9F
:1047D000E418FFF7EDFF431BA342FAD338BD00BF37
:1047E000800000200749CA6822F4E0620302120434
:1047F00003F4E063120C134343F0BF6343F400334C
:10480000CB60704700ED00E0164B30B5DC68C4F3B8
:104810000224C4F10705231D042D28BF0425062BFF
:104820004FF0FF338CBF033C002403FA05F521EA67
:104830000501A34022EA0302A140002841EA020345
:10484000ACBF00F16040084A4FEA0313B8BF00F064
:104850000F00DBB2AABF00F56140135480F80033AB
:1048600030BD00BF00ED00E014ED00E0002808DBE3
:104870004209012300F01F0003FA00F0014B43F846
:104880002200704700E100E010B5044650B14379C2
:1048900003F0FF0213B90271FDF7BEF80123637143
:1048A000002010BD0120FCE710B5044630B390F89D
:1048B000393003F0FF021BB980F83820FDF7C4F847
:1048C00022686168022384F83930136823F4403386
:1048D0000B431360536BA16823F007030B4353632F
:1048E000136CE16823F47F5323F03F030B431364FD
:1048F00000200123E06384F8393010BD0120FCE77B
:1049000070477047036870B55E681D68F20704461B
:1049100014D5E90512D51A6822F480721A60C26BA8
:1049200042F00102C26301229A60042380F8393008
:10493000002380F83830436903B19847B20616D592
:10494000AB0414D523681A6822F400521A6020229E
:104950009A60E36B43F00203E363042384F8393085
:10496000002384F8383063690BB12046984730073C
:1049700016D5290514D523681A6822F400621A6036
:1049800008229A60E36B43F00403E363042384F892
:104990003930002384F8383063690BB120469847DA
:1049A00072070BD56B0509D523681A6822F480625B
:1049B0001A6004229A602046FFF7A2FFB00714D5C0
:1049C000A90512D523681A6822F400721A6002221F
:1049D0009A60E36BE363012384F83930002384F8A1
:1049E000383023690BB120469847F20613D5EB0403
:1049F00011D523681A6822F480521A6010229A6036
:104A0000E36BE363012384F83930002384F8383002
:104A10002046FFF776FF70BDF0B590F83830012BD7
:104A20004FF002032BD0012280F8393080F8382073
:104A300000EB0113D3E907425D6A184F44EA0242D2
:104A4000093C012C9CBF05F07F431A434FEA011635
:104A5000036888BF42EA056299B9596A39400A4336
:104A60005A62012C82699A6103D8426A22F07F421D
:104A70009A62012380F83930002380F838301846D4
:104A8000F0BDD96939400A43DA618219012C926973
:104A90001A619CBF25F07F451D62EAE7F0FFFC002C
:104AA0002DE9F74FDFF8C0916D4A00230D6801240E
:104AB0009C4004EA050CAC4340F0B9804D6805F019
:104AC00003044FEA43080326671E06FA08F6012F7F
:104AD0006FEA060634D8876807EA060ECF6807FA39
:104AE00008F747EA0E078760476827EA0C0EC5F308
:104AF00000179F4047EA0E074760C76807EA060E9F
:104B00008F6807FA08F747EA0E07022CC76019D129
:104B10004FEAD30A00EB8A0A03F0070BDAF8207099
:104B20004FEA8B0B4FF00F0E0EFA0BFE27EA0E0E1C
:104B30000F6907FA0BF747EA0E07CAF8207001E081
:104B4000032CDAD1076804FA08F43E40264315F432
:104B5000403F06606BD04FF0000ACDF804A0D9F8B2
:104B60004460404C46F48046C9F84460D9F844603B
:104B700006F480460196019E23F0030606F1804666
:104B800006F59C3603F0030ED6F808804FEA8E0E29
:104B90000F2707FA0EF7A04228EA07074ED004F5C0
:104BA0008064A0424CD004F58064A0424AD004F551
:104BB0008064A04248D004F58064A04246D004F549
:104BC0008064A04244D004F58064A04242D004F541
:104BD0008064A04240D004F58064A0423ED004F539
:104BE0008064A0420CBF09240A2404FA0EF43C435A
:104BF000B46094686FEA0C06EF0254BF34404CEA8C
:104C000004049460D468AF0254BF34404CEA0404F6
:104C1000D4605468AF0354BF34404CEA0404546079
:104C20001468ED0354BF34404CEA040414600133AB
:104C3000102B7FF43BAF03B0BDE8F08F5446D4E7B0
:104C40000124D2E70224D0E70324CEE70424CCE7F2
:104C50000524CAE70624C8E70724C6E70824C4E7F2
:104C6000003C014000000240003802400369194244
:104C700014BF0120002070470AB181617047090408
:104C8000FBE7436901EA030221EA030141EA024129
:104C90008161704701684B6913F480634FF0000233
:104CA00010D06FF480634B612023026380F83D30A5
:104CB00080F83E20036C80F83C2043F0040303643A
:104CC00001207047184670472DE9F84606460F4602
:104CD00091461D464FEA114A3368BAF1010F0CBFE5
:104CE0005C699C6927EA0404A4B2B4FA84F46409F8
:104CF000A14501D0002017E06A1CEED0FFF758FD57
:104D0000089BC01AA84201D8002DE5D1002320221B
:104D1000336386F83D2086F83E30326C86F83C30AE
:104D200042F0200232640120BDE8F8862DE9F0410E
:104D300004460F46164698462568686927EA00002B
:104D400080B2B8B16B695A0516D52B6843F400736D
:104D50002B606FF480636B6120220023236384F84F
:104D60003D2084F83E30226C42F00402226484F834
:104D70003C300120BDE8F081731CDED0FFF718FD48
:104D8000A0EB0800B04201D8002ED5D1002320228C
:104D9000236384F83D2084F83E30226C42F02002E8
:104DA000E4E770B504460D46164621684B6913F0DA
:104DB000400301D0002010E04A69D2060ED56FF002
:104DC00010024A612022236384F83D2084F83E309B
:104DD000226C226484F83C30012070BDFFF7E8FCAF
:104DE000801BA84201D8002DDFD10023202223639D
:104DF00084F83D2084F83E30226C42F02002E8E73F
:104E000070B504460D46164623685B695B0701D5FD
:104E1000002070BD2046FFF73DFFA8B96A1CF3D003
:104E2000FFF7C6FC801BA84201D8002DECD100235F
:104E30002022236384F83D2084F83E30226C84F8DD
:104E40003C3042F0200222640120E2E770B50446C3
:104E50000D46164623685B691B0601D5002070BD10
:104E60002046FFF717FFA8B96A1CF3D0FFF7A0FC94
:104E7000801BA84201D8002DECD1002320222363FF
:104E800084F83D2084F83E30226C84F83C3042F0B7
:104E9000200222640120E2E72DE9F0431546026872
:104EA00085B0DDE90C789946136843F4807313608C
:104EB0000E463B46CDF8008000224FF0011104461B
:104EC000FFF702FF236838B11B68DB0502D54FF4FA
:104ED0000073236403200AE006F0FE061E611949F0
:104EE00043463A462046FFF721FF18B1012005B09E
:104EF000BDE8F083236803905A6903929B6903938A
:104F0000424639462046039BFFF7A0FF40B1236C81
:104F1000042B01BF2268136843F400731360E5E7B4
:104F2000B9F1010F236802D1EDB21D61DFE72A0A52
:104F30001A61394642462046FFF788FF0028E6D12D
:104F40002368F1E7020001002DE9FF479A46036854
:104F500015461A6842F480621A601A68DDE90C7816
:104F600042F480721A600E463B46CDF80080002263
:104F70004FF001110446FFF7A7FE236848B11B68F4
:104F8000DB0502D54FF400732364032004B0BDE8B1
:104F9000F0875FFA86F906F0FE061E612A4943464D
:104FA0003A462046FFF7C2FE08B10120EEE723682B
:104FB00003905A6903929B690393424639462046FF
:104FC000039BFFF743FF40B1236C042B01BF226812
:104FD000136843F400731360E7E7BAF1010F236825
:104FE0001AD1EDB21D61424639462046FFF72EFF29
:104FF0000028E9D12268136843F4807313604FF0EE
:1050000001110246CDF800803B462046FFF75CFECA
:10501000226860B11368B3E72A0A1A61394642462A
:105020002046FFF713FF0028CED12368D9E749F0C7
:1050300001031361044943463A462046FFF776FED2
:10504000003818BF0120A1E70200010070B5044636
:1050500008B9012070BD90F83D3003F0FF021BB984
:1050600080F83C20FCF712FD242384F83D302368AF
:105070001A6822F001021A601A6842F400421A60AB
:105080001A6822F400421A6000F074FE3F4B656813
:105090009D4294BF3E4B3F4B98428CBF002301235F
:1050A000002BD6D12268394E53683B49B0FBF1F151
:1050B00023F03F030B43B542536088BF4FF496760D
:1050C000136A88BF714323F03F0384BF4FF47A769D
:1050D000B1FBF6F1013119431162D169431E2B482E
:1050E00021F44F41854221F0FF0132D86D0040F696
:1050F000FC70B3FBF5F30133034242D0C3F30B035F
:105100000B43D361D4E907301168034321F0C00198
:105110000B4313609168D4E9030321F40341034373
:1051200021F0FF010B439360D4E90530D1680343BC
:1051300021F0FF010B43D360136843F001031360B8
:1051400000202023206484F83D30206384F83E0052
:1051500080E7A06850B905EB4505B3FBF5F30133D3
:10516000C3F30B037BB143F40043C9E71920454364
:10517000B3FBF5F30133C3F30B0323B143F4404313
:10518000BEE70423BCE70123BAE700BFA086010005
:105190007F841E00FF083D0040420F002DE9F743C9
:1051A000044699460C9E0F469046FFF701FB94F883
:1051B0003D30202B054603D0022003B0BDE8F0832C
:1051C00000903C49192301222046FFF77DFD00286D
:1051D000F2D194F83C30012BEED02068012384F802
:1051E0003C300368D9075EBF036843F001030360E6
:1051F000036823F400630360212384F83D304023D7
:1052000084F83E30002323640A9B6362BDF82C308F
:105210006385638D2385284BE362CDE900654B46AA
:10522000424639462046FFF737FE00282AD00120A3
:10523000C3E7FFF70BFE40B1236C042B01BF2268CC
:10524000136843F400731360F1E7636A27681A4632
:1052500012F8011B39616262628D218D013A92B2AE
:1052600062857A69481E80B2520720850AD548B106
:105270005A783A6102336362638D013B02399BB213
:1052800021856385238D2A4631462046002BD0D1C7
:10529000FFF7B6FD0028CFD12268136843F40073EE
:1052A0001360202384F83D3084F83C0084F83E00ED
:1052B00083E700BF020010000000FFFF2DE9F0436C
:1052C000044687B09946109F0D469046FFF770FA46
:1052D00094F83D30202B064604D00225284607B01E
:1052E000BDE8F08300907649192301222046FFF79C
:1052F000EBFC0028F1D194F83C30012BEDD0206874
:10530000012384F83C300368DB075EBF036843F089
:1053100001030360036823F400630360222384F81D
:105320003D30402384F83E30002323640E9B6362AB
:10533000BDF83C306385638D2385624BE36229466B
:10534000CDE900764B4642462046FFF7FDFD054677
:1053500008B10125C2E7228D2368B2B902905A69CB
:1053600002929A690292029A1A6842F400721A60D2
:10537000DFF85481238D002B2CD1202284F83D208E
:1053800084F83C3084F83E30A8E7012A0AD11A6834
:1053900022F480621A6003905A6903929A69039218
:1053A000039AE1E7022A0ED11A6822F480621A6099
:1053B0001A6842F400621A6004905A6904929B6968
:1053C0000493049BD4E705905A6905929B69059361
:1053D000059BCDE7032B56D8012B15D13246394614
:1053E0002046FFF7DEFC0028B3D123681A69636A00
:1053F0001A70636A01336362238D013B2385638DD9
:10540000013B9BB26385B5E7022B00963B464FF00C
:1054100000024146204619D1FFF756FC002898D1DA
:1054200023681A6842F400721A601A69636A1A7073
:10543000626A531C6362238D013B2385638D013BAC
:105440009BB2638523681B695370D2E7FFF73CFC6E
:1054500000287FF47EAF23681A6822F480621A6005
:105460001A69636A1A70636A009601336362238D56
:10547000013B2385638D013B9BB2638502463B461E
:1054800041462046C8E7324639462046FFF789FCA8
:1054900000287FF45EAF23681A69636A1A70626A33
:1054A000531C6362238D013B2385638D013B9BB2BB
:1054B00063852368596949077FF55CAFC3E700BF7F
:1054C000020010000000FFFF0400010010B590F87A
:1054D0003D30202BDCB216D1242380F83D30036808
:1054E0001A6822F001021A605A6A22F010025A6207
:1054F0005A6A114359621A6842F001021A6080F830
:105500003D40002010BD0220FCE730B590F83D3052
:10551000202BDCB216D10268242380F83D301368BA
:1055200023F001031360556A4FF6F0732B400B43D1
:105530009BB25362136843F00103136080F83D404F
:10554000002030BD0220FCE70068D1F800C0D20185
:10555000843283182DE9F043C6685D684C68D1F841
:10556000189005F470455D60C5680CF10107C5F33E
:105570000B45C6F30B463D44264445EA06455D60AF
:10558000C568CE68C5F30A052E449D6805F47045CC
:105590009D60C7688D68C7F30A0701353D4445EA39
:1055A00006459D601D690E6925F007051D614FF0D8
:1055B000000E1E619D6991F8327091F83180C3F838
:1055C00018E091F8305045EA096545EA082545EAB2
:1055D00007459D615D6925F0FF055D614D695D6170
:1055E000DD6925F4E06525F00705DD61D1E90757A0
:1055F0003D43DD619D6A4D6AC3F828E09D621EB39C
:10560000012E23D0B51E022D22D9072E0CBF022554
:105610000125DE6A06F0E026DE62A4EB0C048E6A49
:10562000C96A6C436E43033444EA0644DC621C6B73
:1056300024F4FF6424F007041C631963835843F0C7
:1056400001038350BDE8F0830425E2E70325E0E78A
:105650000225DEE738B50446002863D090F8A13073
:1056600003F0FF021BB980F8A020FCF76BFA0223BD
:1056700084F8A13023689A6922F070429A61D4E9D3
:1056800001200243E06899690243206902430A430A
:105690009A619A68244960690A409A609A6842EA65
:1056A0000042A06902439A60DA68E0690A40DA6061
:1056B000DA6842EA0042206A0243DA601A69606AE4
:1056C0000A401A611A6942EA0042A06A02431A615A
:1056D0005A69114059615A69E16A42EA0142216BF3
:1056E0000A435A61D96A94F8360094F8355001F0AB
:1056F0007F41D962D96A94F834200A4342EA0522EC
:1057000042EA0042DA625A6B42F006025A639A6930
:1057100042F001029A6100200123C4F8A40084F839
:10572000A13038BD0120FCE700F800F07047704759
:10573000036870B59E6B5D6B7207044614D56907EC
:1057400012D55A6B22F004025A630422DA63D0F8AD
:10575000A43043F00103C0F8A430002380F8A12056
:1057600080F8A030FFF7E2FFB20716D5AB0714D5DB
:1057700023685A6B22F002025A630222DA63D4F8D9
:10578000A4301343C4F8A430042384F8A1300023C8
:1057900084F8A0302046FFF7C9FFF00710D5E907CD
:1057A0000ED523685A6B22F001025A630122DA6394
:1057B000002384F8A12084F8A0302046FBF722FDC6
:1057C000320711D52B070FD523685A6B22F0080238
:1057D0005A630822DA63012384F8A130002384F895
:1057E000A0302046FFF7A3FF70BD2DE9F04190F8EF
:1057F000A030012B06460F4694464FF002001FD002
:105800004FF0010886F8A08086F8A10034240D46E8
:1058100004FB02640FCD38340FC40FCD0FC40FCD7D
:105820000FC42B682360304662463946FFF78CFE72
:1058300033680020C3F8248086F8A18086F8A00091
:10584000BDE8F08190F8A030012B4FF0020312D098
:1058500080F8A13003685A6B22F001025A63074AAC
:1058600011645A6B42F001025A63012380F8A1309F
:10587000002380F8A0301846704700BF0068014040
:105880002DE9F341044640B30368DD0710D42368D3
:1058900098075ED423681A0700F1A08023685B078D
:1058A00000F1C080A069002840F0288100202BE092
:1058B0008F4B9A6802F00C02042A07D09A6802F013
:1058C0000C02082A0BD15A68510208D5884B1B6874
:1058D0009A03DCD56368002BD9D1012014E06268FB
:1058E000B2F5803F13D11A6842F480321A60FEF795
:1058F0005FFF7F4E054633689B03C8D4FEF758FF11
:10590000401B6428F7D9032002B0BDE8F081784D30
:10591000B2F5A02F2B6807D143F480232B602B68AE
:1059200043F480332B60E2E723F480332B602B6851
:1059300023F480232B60002AD9D1FEF739FF0646D5
:105940002B689F03A3D5FEF733FF801B6428F7D98C
:10595000D9E7674B9A6812F00C0F07D09A6802F0EB
:105960000C02082A11D15B685E020ED4604A1368EB
:105970009D0702D5E368012BAFD11368216923F09D
:10598000F80343EAC103136084E7E268594BB2B1FC
:1059900001221A60FEF70CFF554D06462B6898074A
:1059A00007D52B68226923F0F80343EAC2032B6072
:1059B00070E7FEF7FDFE801B0228EFD9A3E71A600F
:1059C000FEF7F6FE4A4E0546336899077FF562AF4B
:1059D000FEF7EEFE401B0228F6D994E76269454BBC
:1059E00082B10122C3F8802EFEF7E2FE404E05464A
:1059F000736F9F073FF552AFFEF7DAFE401B022898
:105A0000F6D980E7C3F8802EFEF7D2FE384E054661
:105A1000736F98077FF542AFFEF7CAFE401B02285E
:105A2000F6D970E7324B1A6C12F0805228D10192ED
:105A30001A6C42F080521A641B6C03F0805301937D
:105A4000019B01272C4D2B68D9051BD5A368284D38
:105A5000012B27D12B6F43F001032B67FEF7A8FE24
:105A6000234E054641F28838336F9B0739D5002F06
:105A70003FF418AF1E4A136C23F08053136411E7F0
:105A80000027DFE72B6843F480732B60FEF790FE5E
:105A900006462B68DA05D9D4FEF78AFE801B022859
:105AA000F7D930E7052B04D12B6F43F004032B67A4
:105AB000D0E72A6F22F001022A672A6F22F004023F
:105AC0002A67002BCAD1FEF773FE41F288380646DA
:105AD0002B6F9807CBD5FEF76BFE801B4045F7D99F
